{
    "contractName": "Lottery",
    "abi": [
        {
            "inputs": [
                {
                    "internalType": "address",
                    "name": "_usdcTokenAddress",
                    "type": "address"
                }
            ],
            "stateMutability": "nonpayable",
            "type": "constructor"
        },
        {
            "inputs": [],
            "name": "LotteryNotOpen",
            "type": "error"
        },
        {
            "inputs": [],
            "name": "NoRandomNumbersReturned",
            "type": "error"
        },
        {
            "inputs": [],
            "name": "NotEnoughMoney",
            "type": "error"
        },
        {
            "inputs": [
                {
                    "internalType": "address",
                    "name": "have",
                    "type": "address"
                },
                {
                    "internalType": "address",
                    "name": "want",
                    "type": "address"
                }
            ],
            "name": "OnlyVRFWrapperCanFulfill",
            "type": "error"
        },
        {
            "anonymous": false,
            "inputs": [
                {
                    "indexed": false,
                    "internalType": "uint256",
                    "name": "drawingNumber",
                    "type": "uint256"
                },
                {
                    "indexed": false,
                    "internalType": "address",
                    "name": "ticketOwner",
                    "type": "address"
                },
                {
                    "indexed": false,
                    "internalType": "uint256",
                    "name": "num1",
                    "type": "uint256"
                },
                {
                    "indexed": false,
                    "internalType": "uint256",
                    "name": "num2",
                    "type": "uint256"
                },
                {
                    "indexed": false,
                    "internalType": "uint256",
                    "name": "num3",
                    "type": "uint256"
                },
                {
                    "indexed": false,
                    "internalType": "uint256",
                    "name": "num4",
                    "type": "uint256"
                },
                {
                    "indexed": false,
                    "internalType": "uint256",
                    "name": "num5",
                    "type": "uint256"
                }
            ],
            "name": "DrawingEntered",
            "type": "event"
        },
        {
            "anonymous": false,
            "inputs": [
                {
                    "indexed": true,
                    "internalType": "uint256",
                    "name": "drawingNumber",
                    "type": "uint256"
                },
                {
                    "indexed": true,
                    "internalType": "address",
                    "name": "winner",
                    "type": "address"
                }
            ],
            "name": "DrawingWinner",
            "type": "event"
        },
        {
            "anonymous": false,
            "inputs": [
                {
                    "indexed": true,
                    "internalType": "address",
                    "name": "from",
                    "type": "address"
                },
                {
                    "indexed": true,
                    "internalType": "address",
                    "name": "to",
                    "type": "address"
                }
            ],
            "name": "OwnershipTransferRequested",
            "type": "event"
        },
        {
            "anonymous": false,
            "inputs": [
                {
                    "indexed": true,
                    "internalType": "address",
                    "name": "from",
                    "type": "address"
                },
                {
                    "indexed": true,
                    "internalType": "address",
                    "name": "to",
                    "type": "address"
                }
            ],
            "name": "OwnershipTransferred",
            "type": "event"
        },
        {
            "anonymous": false,
            "inputs": [
                {
                    "indexed": false,
                    "internalType": "address",
                    "name": "",
                    "type": "address"
                },
                {
                    "indexed": false,
                    "internalType": "uint256",
                    "name": "",
                    "type": "uint256"
                }
            ],
            "name": "Received",
            "type": "event"
        },
        {
            "anonymous": false,
            "inputs": [
                {
                    "indexed": false,
                    "internalType": "uint256",
                    "name": "requestId",
                    "type": "uint256"
                },
                {
                    "indexed": false,
                    "internalType": "uint32",
                    "name": "numWords",
                    "type": "uint32"
                }
            ],
            "name": "RequestSent",
            "type": "event"
        },
        {
            "anonymous": false,
            "inputs": [
                {
                    "indexed": true,
                    "internalType": "uint256",
                    "name": "drawingNumber",
                    "type": "uint256"
                },
                {
                    "indexed": true,
                    "internalType": "address",
                    "name": "paidWinner",
                    "type": "address"
                }
            ],
            "name": "WinnerPaid",
            "type": "event"
        },
        {
            "inputs": [],
            "name": "PERCENTAGE",
            "outputs": [
                {
                    "internalType": "uint256",
                    "name": "",
                    "type": "uint256"
                }
            ],
            "stateMutability": "view",
            "type": "function"
        },
        {
            "inputs": [],
            "name": "TICKET_PRICE_USDT",
            "outputs": [
                {
                    "internalType": "uint256",
                    "name": "",
                    "type": "uint256"
                }
            ],
            "stateMutability": "view",
            "type": "function"
        },
        {
            "inputs": [],
            "name": "acceptOwnership",
            "outputs": [],
            "stateMutability": "nonpayable",
            "type": "function"
        },
        {
            "inputs": [],
            "name": "callbackGasLimit",
            "outputs": [
                {
                    "internalType": "uint32",
                    "name": "",
                    "type": "uint32"
                }
            ],
            "stateMutability": "view",
            "type": "function"
        },
        {
            "inputs": [
                {
                    "internalType": "uint256",
                    "name": "",
                    "type": "uint256"
                }
            ],
            "name": "currentDrawingParticipants",
            "outputs": [
                {
                    "internalType": "address payable",
                    "name": "",
                    "type": "address"
                }
            ],
            "stateMutability": "view",
            "type": "function"
        },
        {
            "inputs": [],
            "name": "currentDrawingTotalAmount",
            "outputs": [
                {
                    "internalType": "uint256",
                    "name": "",
                    "type": "uint256"
                }
            ],
            "stateMutability": "view",
            "type": "function"
        },
        {
            "inputs": [],
            "name": "drawingNumber",
            "outputs": [
                {
                    "internalType": "uint256",
                    "name": "",
                    "type": "uint256"
                }
            ],
            "stateMutability": "view",
            "type": "function"
        },
        {
            "inputs": [
                {
                    "internalType": "uint256",
                    "name": "numTickets",
                    "type": "uint256"
                },
                {
                    "internalType": "uint256[]",
                    "name": "_num1",
                    "type": "uint256[]"
                },
                {
                    "internalType": "uint256[]",
                    "name": "_num2",
                    "type": "uint256[]"
                },
                {
                    "internalType": "uint256[]",
                    "name": "_num3",
                    "type": "uint256[]"
                },
                {
                    "internalType": "uint256[]",
                    "name": "_num4",
                    "type": "uint256[]"
                },
                {
                    "internalType": "uint256[]",
                    "name": "_num5",
                    "type": "uint256[]"
                }
            ],
            "name": "enterDrawing",
            "outputs": [],
            "stateMutability": "payable",
            "type": "function"
        },
        {
            "inputs": [],
            "name": "executeDrawing",
            "outputs": [
                {
                    "internalType": "uint256",
                    "name": "",
                    "type": "uint256"
                }
            ],
            "stateMutability": "nonpayable",
            "type": "function"
        },
        {
            "inputs": [],
            "name": "getBalance",
            "outputs": [
                {
                    "internalType": "uint256",
                    "name": "",
                    "type": "uint256"
                }
            ],
            "stateMutability": "view",
            "type": "function"
        },
        {
            "inputs": [],
            "name": "getLinkToken",
            "outputs": [
                {
                    "internalType": "contract LinkTokenInterface",
                    "name": "",
                    "type": "address"
                }
            ],
            "stateMutability": "view",
            "type": "function"
        },
        {
            "inputs": [
                {
                    "internalType": "address",
                    "name": "",
                    "type": "address"
                }
            ],
            "name": "historicalDrawingWinners",
            "outputs": [
                {
                    "internalType": "uint256",
                    "name": "",
                    "type": "uint256"
                }
            ],
            "stateMutability": "view",
            "type": "function"
        },
        {
            "inputs": [],
            "name": "i_vrfV2PlusWrapper",
            "outputs": [
                {
                    "internalType": "contract IVRFV2PlusWrapper",
                    "name": "",
                    "type": "address"
                }
            ],
            "stateMutability": "view",
            "type": "function"
        },
        {
            "inputs": [],
            "name": "lastRequestId",
            "outputs": [
                {
                    "internalType": "uint256",
                    "name": "",
                    "type": "uint256"
                }
            ],
            "stateMutability": "view",
            "type": "function"
        },
        {
            "inputs": [],
            "name": "linkAddress",
            "outputs": [
                {
                    "internalType": "address",
                    "name": "",
                    "type": "address"
                }
            ],
            "stateMutability": "view",
            "type": "function"
        },
        {
            "inputs": [],
            "name": "lotteryState",
            "outputs": [
                {
                    "internalType": "enum Lottery.LotteryState",
                    "name": "",
                    "type": "uint8"
                }
            ],
            "stateMutability": "view",
            "type": "function"
        },
        {
            "inputs": [],
            "name": "numWords",
            "outputs": [
                {
                    "internalType": "uint32",
                    "name": "",
                    "type": "uint32"
                }
            ],
            "stateMutability": "view",
            "type": "function"
        },
        {
            "inputs": [
                {
                    "internalType": "uint256",
                    "name": "",
                    "type": "uint256"
                }
            ],
            "name": "numbersSelected",
            "outputs": [
                {
                    "internalType": "uint8",
                    "name": "",
                    "type": "uint8"
                }
            ],
            "stateMutability": "view",
            "type": "function"
        },
        {
            "inputs": [],
            "name": "owner",
            "outputs": [
                {
                    "internalType": "address",
                    "name": "",
                    "type": "address"
                }
            ],
            "stateMutability": "view",
            "type": "function"
        },
        {
            "inputs": [
                {
                    "internalType": "address",
                    "name": "",
                    "type": "address"
                }
            ],
            "name": "participantTicketCount",
            "outputs": [
                {
                    "internalType": "uint256",
                    "name": "",
                    "type": "uint256"
                }
            ],
            "stateMutability": "view",
            "type": "function"
        },
        {
            "inputs": [
                {
                    "internalType": "address",
                    "name": "",
                    "type": "address"
                },
                {
                    "internalType": "uint256",
                    "name": "",
                    "type": "uint256"
                },
                {
                    "internalType": "uint256",
                    "name": "",
                    "type": "uint256"
                }
            ],
            "name": "participantsNumbers",
            "outputs": [
                {
                    "internalType": "uint256",
                    "name": "",
                    "type": "uint256"
                }
            ],
            "stateMutability": "view",
            "type": "function"
        },
        {
            "inputs": [
                {
                    "internalType": "uint256",
                    "name": "_requestId",
                    "type": "uint256"
                },
                {
                    "internalType": "uint256[]",
                    "name": "_randomWords",
                    "type": "uint256[]"
                }
            ],
            "name": "rawFulfillRandomWords",
            "outputs": [],
            "stateMutability": "nonpayable",
            "type": "function"
        },
        {
            "inputs": [],
            "name": "requestConfirmations",
            "outputs": [
                {
                    "internalType": "uint16",
                    "name": "",
                    "type": "uint16"
                }
            ],
            "stateMutability": "view",
            "type": "function"
        },
        {
            "inputs": [
                {
                    "internalType": "uint256",
                    "name": "",
                    "type": "uint256"
                }
            ],
            "name": "requestIds",
            "outputs": [
                {
                    "internalType": "uint256",
                    "name": "",
                    "type": "uint256"
                }
            ],
            "stateMutability": "view",
            "type": "function"
        },
        {
            "inputs": [
                {
                    "internalType": "uint256",
                    "name": "",
                    "type": "uint256"
                }
            ],
            "name": "s_requests",
            "outputs": [
                {
                    "internalType": "uint256",
                    "name": "paid",
                    "type": "uint256"
                },
                {
                    "internalType": "bool",
                    "name": "fulfilled",
                    "type": "bool"
                }
            ],
            "stateMutability": "view",
            "type": "function"
        },
        {
            "inputs": [
                {
                    "internalType": "address",
                    "name": "to",
                    "type": "address"
                }
            ],
            "name": "transferOwnership",
            "outputs": [],
            "stateMutability": "nonpayable",
            "type": "function"
        },
        {
            "inputs": [],
            "name": "usdcToken",
            "outputs": [
                {
                    "internalType": "contract USDC",
                    "name": "",
                    "type": "address"
                }
            ],
            "stateMutability": "view",
            "type": "function"
        },
        {
            "inputs": [],
            "name": "withdrawLink",
            "outputs": [],
            "stateMutability": "nonpayable",
            "type": "function"
        },
        {
            "inputs": [
                {
                    "internalType": "uint256",
                    "name": "amount",
                    "type": "uint256"
                }
            ],
            "name": "withdrawNative",
            "outputs": [],
            "stateMutability": "nonpayable",
            "type": "function"
        },
        {
            "inputs": [],
            "name": "wrapperAddress",
            "outputs": [
                {
                    "internalType": "address",
                    "name": "",
                    "type": "address"
                }
            ],
            "stateMutability": "view",
            "type": "function"
        },
        {
            "stateMutability": "payable",
            "type": "receive"
        }
    ],
    "bytecode": "60c080604052346101b25761002a906114be803803809161002082856101b6565b83398101906101ed565b601054604051630711a57d60e21b81526001600160a01b03821690602081600481855afa9081156101a7575f91610178575b506001600160a01b031660805260a0523315610133575f80546001600160a01b03199081163317909155600f80547d779877a7b0d9e8603169ddbd7836e478b4624789000000050003000186a06001600160f01b03199190911617905590811673195f15f2d49d693ce265b4fb0fddbe15b1850cc117601055600280549091166001600160a01b039290921691909117905560016006556008805460ff191690556040516112b1908161020d82396080518181816102ef01526106a6015260a051818181610221015281816107620152610fd60152f35b60405162461bcd60e51b815260206004820152601860248201527f43616e6e6f7420736574206f776e657220746f207a65726f00000000000000006044820152606490fd5b61019a915060203d6020116101a0575b61019281836101b6565b8101906101ed565b5f61005c565b503d610188565b6040513d5f823e3d90fd5b5f80fd5b601f909101601f19168101906001600160401b038211908210176101d957604052565b634e487b7160e01b5f52604160045260245ffd5b908160209103126101b257516001600160a01b03811681036101b2579056fe608080604052600436101561004d575b50361561001a575f80fd5b604080513381523460208201527f88a5966d370b9919b20f3e2c13ff65706f196a4e32cc2c12bf57088f885258749190a1005b5f3560e01c90816306e73fe9146110a65750806311eac8551461107e57806312065fe014611063578063145cb82e1461102b5780631fe543e314610fa3578063235cea9814610f7757806324f7469714610f54578063283dba3d14610ef3578063293315f214610ed8578063356f7e4314610ebb5780636939864b14610e925780637492141314610e5057806379ba509714610da55780637a6d585314610a0e5780637ccfd7fc146109e85780637df8b802146109c057806384276d81146109145780638796ba8c146108dc5780638da5cb5b146108b55780638dc654a2146107915780639ed0868d1461074d578063a168fa8914610715578063a764b1e2146106f8578063b0fb162f146106d5578063e76d516814610691578063e8247a6014610632578063ee18f1f414610617578063f2fde38b1461055c578063fc2a88c31461053f5763fc3d8708146101a3575f61000f565b346104c4575f3660031901126104c4576101bb611206565b604051602081018181106001600160401b03821117610474576040525f81526040519063125fa26760e31b60208301525115156024820152602481526102026044826110f0565b600f549063ffffffff821663ffffffff8360301c169260018060a01b037f00000000000000000000000000000000000000000000000000000000000000001691604051936313f2e28560e11b8552816004860152856024860152602085604481875afa9485156104d0575f95610506575b50602092916102ae6102bc926102ea979861ffff60405196879589870152881c166040850152606084015260808084015260a0830190611257565b03601f1981018352826110f0565b60405180948192630200057560e51b8352856004840152876024840152606060448401526064830190611257565b03815f7f00000000000000000000000000000000000000000000000000000000000000006001600160a01b03165af19081156104d0576004926020926104db575b5060405163fc2a88c360e01b815292839182905afa9081156104d0575f9161049a575b5060405160209261035f84836110f0565b5f82525f36813760405160608101918183106001600160401b038411176104745760029260405281528481015f815260408201938452845f52600c865260405f2091518255600182019051151560ff80198354169116179055019051908151916001600160401b03831161047457600160401b83116104745784906103e9848454818655856111d5565b01905f52835f205f5b838110610488578585600d54600160401b8110156104745780600161041a9201600d55611191565b81549060031b9083821b915f19901b191617905580600e557fcc58b13ad3eab50626c6a6300b1d139cd6ebb1688a7cced9461c2f7e762665ee604063ffffffff600f5460301c1681519084825285820152a1604051908152f35b634e487b7160e01b5f52604160045260245ffd5b825182820155918501916001016103f2565b90506020813d6020116104c8575b816104b5602093836110f0565b810103126104c457515f61034e565b5f80fd5b3d91506104a8565b6040513d5f823e3d90fd5b6104fa90833d85116104ff575b6104f281836110f0565b8101906111a9565b61032b565b503d6104e8565b929194506020833d602011610537575b81610523602093836110f0565b810103126104c45791519390916020610273565b3d9150610516565b346104c4575f3660031901126104c4576020600e54604051908152f35b346104c45760203660031901126104c4576105756110da565b61057d611206565b6001600160a01b03163381146105d257600180546001600160a01b031916821790555f80546001600160a01b0316907fed8889f560326eb138920d842192f0eb3dd22b4f139c87a2c57538e05bae12789080a3005b60405162461bcd60e51b815260206004820152601760248201527f43616e6e6f74207472616e7366657220746f2073656c660000000000000000006044820152606490fd5b346104c4575f3660031901126104c457602060405160018152f35b346104c45760203660031901126104c4576004356007548110156104c45760075481101561067d5760ff60209160075f5260f8835f208260051c01549160031b161c16604051908152f35b634e487b7160e01b5f52603260045260245ffd5b346104c4575f3660031901126104c4576040517f00000000000000000000000000000000000000000000000000000000000000006001600160a01b03168152602090f35b346104c4575f3660031901126104c457602061ffff600f54821c16604051908152f35b346104c4575f3660031901126104c4576020600654604051908152f35b346104c45760203660031901126104c4576004355f52600c6020526040805f2060ff6001825492015416825191825215156020820152f35b346104c4575f3660031901126104c4576040517f00000000000000000000000000000000000000000000000000000000000000006001600160a01b03168152602090f35b346104c4575f3660031901126104c4576107a9611206565b600f546040516370a0823160e01b81523060048201529060501c6001600160a01b0316602082602481845afa9182156104d0575f9261087f575b5060405163a9059cbb60e01b815233600482015260248101929092526020908290815f81604481015b03925af19081156104d0575f91610860575b501561082657005b60405162461bcd60e51b81526020600482015260126024820152712ab730b13632903a37903a3930b739b332b960711b6044820152606490fd5b610879915060203d6020116104ff576104f281836110f0565b8161081e565b91506020823d6020116108ad575b8161089a602093836110f0565b810103126104c45790519061080c6107e3565b3d915061088d565b346104c4575f3660031901126104c4575f546040516001600160a01b039091168152602090f35b346104c45760203660031901126104c457600435600d548110156104c457610905602091611191565b90549060031b1c604051908152f35b346104c45760203660031901126104c45761092d611206565b5f80808060043560018060a01b038254165af13d156109bb573d6001600160401b038111610474576040519061096d601f8201601f1916602001836110f0565b81525f60203d92013e5b1561097e57005b60405162461bcd60e51b81526020600482015260156024820152741dda5d1a191c985dd3985d1a5d994819985a5b1959605a1b6044820152606490fd5b610977565b346104c4575f3660031901126104c4576010546040516001600160a01b039091168152602090f35b346104c4575f3660031901126104c457602063ffffffff600f5460301c16604051908152f35b60c03660031901126104c4576004356024356001600160401b0381116104c457610a3c903690600401611111565b906044356001600160401b0381116104c457610a5c903690600401611111565b916064356001600160401b0381116104c457610a7c903690600401611111565b926084356001600160401b0381116104c457610a9c903690600401611111565b9160a4356001600160401b0381116104c457610abc903690600401611111565b9160ff600854166002811015610d9157610d825784620f424002620f424081048603610d2e57803410610d73576002546040516323b872dd60e01b81523360048201523060248201526044810183905290602090829060649082905f906001600160a01b03165af180156104d057610d56575b505f5b868110610b3b57005b600354600160401b81101561047457806001610b5a9201600355611179565b81546001600160a01b0360039290921b91821b19163390911b179055600454828101908110610d2e5760045560c090604051610b9683826110f0565b60058152602081019060a0368337610bae83886111c1565b5181511561067d578252610bc283876111c1565b5181516001101561067d576040820152610bdc838c6111c1565b5181516002101561067d576060820152610bf6838a6111c1565b5181516003101561067d576080820152610c1083896111c1565b5181516004101561067d5760a0820152335f52600960205260405f20335f52600a60205260405f20545f5260205260405f209051916001600160401b03831161047457600160401b831161047457610c6d838354818555846111d5565b905f5260205f205f5b838110610d425750505050335f52600a60205260405f2080549260018401809411610d2e57868660e0928a8c8f6001997f94dd5e9f1ed2a48b7964fa310024f8b083acbc89843d5582cff95ba543cb11e49855610d0289610cfb81610cf481610ced81610ce6816006549f6111c1565b519c6111c1565b51966111c1565b51956111c1565b51946111c1565b519460405196875233602088015260408701526060860152608085015260a0840152820152a101610b32565b634e487b7160e01b5f52601160045260245ffd5b600190602084519401938184015501610c76565b610d6e9060203d6020116104ff576104f281836110f0565b610b2f565b636b90fe5960e11b5f5260045ffd5b6315ea643d60e21b5f5260045ffd5b634e487b7160e01b5f52602160045260245ffd5b346104c4575f3660031901126104c4576001546001600160a01b0381163303610e12575f80546001600160a01b031980821633908117845593166001556001600160a01b0316907f8be0079c531659141344cd1fd0a4f28419497f9722a3daafe3b4186f6b6457e09080a3005b60405162461bcd60e51b815260206004820152601660248201527526bab9ba10313290383937b837b9b2b21037bbb732b960511b6044820152606490fd5b346104c45760203660031901126104c4576004356003548110156104c457610e79602091611179565b905460405160039290921b1c6001600160a01b03168152f35b346104c4575f3660031901126104c45760ff600854166040516002821015610d91576020918152f35b346104c4575f3660031901126104c4576020600454604051908152f35b346104c4575f3660031901126104c4576020604051600f8152f35b346104c45760603660031901126104c457610f0c6110da565b6044359060018060a01b03165f52600960205260405f206024355f5260205260405f209081548110156104c457815481101561067d576020915f52815f200154604051908152f35b346104c4575f3660031901126104c457602063ffffffff600f5416604051908152f35b346104c4575f3660031901126104c457600f5460405160509190911c6001600160a01b03168152602090f35b346104c45760403660031901126104c4576024356001600160401b0381116104c457610fd3903690600401611111565b507f00000000000000000000000000000000000000000000000000000000000000006001600160a01b0316338190036110155763cb52535360e01b5f5260045ffd5b6345d498b760e11b5f523360045260245260445ffd5b346104c45760203660031901126104c4576001600160a01b0361104c6110da565b165f52600b602052602060405f2054604051908152f35b346104c4575f3660031901126104c457602047604051908152f35b346104c4575f3660031901126104c4576002546040516001600160a01b039091168152602090f35b346104c45760203660031901126104c4576020906001600160a01b036110ca6110da565b165f52600a825260405f20548152f35b600435906001600160a01b03821682036104c457565b90601f801991011681019081106001600160401b0382111761047457604052565b9080601f830112156104c4578135916001600160401b038311610474578260051b90602082019361114560405195866110f0565b84526020808501928201019283116104c457602001905b8282106111695750505090565b813581526020918201910161115c565b60035481101561067d5760035f5260205f2001905f90565b600d5481101561067d57600d5f5260205f2001905f90565b908160209103126104c4575180151581036104c45790565b805182101561067d5760209160051b010190565b9190918282106111e457505050565b5f5260205f2091820191015b8181106111fb575050565b5f81556001016111f0565b5f546001600160a01b0316330361121957565b60405162461bcd60e51b815260206004820152601660248201527527b7363c9031b0b63630b1363290313c9037bbb732b960511b6044820152606490fd5b805180835260209291819084018484015e5f828201840152601f01601f191601019056fea264697066735822122080c40536908a0a1e588abae2bc15276f77da39cc4a850fd3c86a001f263d830364736f6c634300081d0033",
    "sourcePath": "/home/tfiorin/code/blockchain-lottery/contracts/Lottery.sol",
    "compiler": {
        "name": "solc",
        "version": "0.8.29+commit.ab55807c"
    },
    "functionHashes": {
        "PERCENTAGE()": "293315f2",
        "TICKET_PRICE_USDT()": "ee18f1f4",
        "acceptOwnership()": "79ba5097",
        "callbackGasLimit()": "24f74697",
        "currentDrawingParticipants(uint256)": "74921413",
        "currentDrawingTotalAmount()": "356f7e43",
        "drawingNumber()": "a764b1e2",
        "enterDrawing(uint256,uint256[],uint256[],uint256[],uint256[],uint256[])": "7a6d5853",
        "executeDrawing()": "fc3d8708",
        "getBalance()": "12065fe0",
        "getLinkToken()": "e76d5168",
        "historicalDrawingWinners(address)": "145cb82e",
        "i_vrfV2PlusWrapper()": "9ed0868d",
        "lastRequestId()": "fc2a88c3",
        "linkAddress()": "235cea98",
        "lotteryState()": "6939864b",
        "numWords()": "7ccfd7fc",
        "numbersSelected(uint256)": "e8247a60",
        "owner()": "8da5cb5b",
        "participantTicketCount(address)": "06e73fe9",
        "participantsNumbers(address,uint256,uint256)": "283dba3d",
        "rawFulfillRandomWords(uint256,uint256[])": "1fe543e3",
        "requestConfirmations()": "b0fb162f",
        "requestIds(uint256)": "8796ba8c",
        "s_requests(uint256)": "a168fa89",
        "transferOwnership(address)": "f2fde38b",
        "usdcToken()": "11eac855",
        "withdrawLink()": "8dc654a2",
        "withdrawNative(uint256)": "84276d81",
        "wrapperAddress()": "7df8b802"
    },
    "gasEstimates": {
        "creation": {
            "codeDepositCost": "957000",
            "executionCost": "infinite",
            "totalCost": "infinite"
        },
        "external": {
            "PERCENTAGE()": "329",
            "TICKET_PRICE_USDT()": "725",
            "acceptOwnership()": "50420",
            "callbackGasLimit()": "2394",
            "currentDrawingParticipants(uint256)": "6875",
            "currentDrawingTotalAmount()": "2454",
            "drawingNumber()": "2740",
            "enterDrawing(uint256,uint256[],uint256[],uint256[],uint256[],uint256[])": "infinite",
            "executeDrawing()": "infinite",
            "getBalance()": "202",
            "getLinkToken()": "infinite",
            "historicalDrawingWinners(address)": "2472",
            "i_vrfV2PlusWrapper()": "infinite",
            "lastRequestId()": "2872",
            "linkAddress()": "2399",
            "lotteryState()": "2518",
            "numWords()": "2576",
            "numbersSelected(uint256)": "7148",
            "owner()": "2675",
            "participantTicketCount(address)": "2398",
            "participantsNumbers(address,uint256,uint256)": "6938",
            "rawFulfillRandomWords(uint256,uint256[])": "infinite",
            "requestConfirmations()": "2774",
            "requestIds(uint256)": "6986",
            "s_requests(uint256)": "4922",
            "transferOwnership(address)": "30869",
            "usdcToken()": "2302",
            "withdrawLink()": "infinite",
            "withdrawNative(uint256)": "infinite",
            "wrapperAddress()": "2610"
        },
        "internal": {
            "findWinners()": "infinite",
            "fulfillRandomWords(uint256,uint256[] memory)": "infinite",
            "getUniqueNumbersFromVRF(uint256[] memory,uint8,uint8)": "infinite",
            "getWinnerNumbers()": "infinite",
            "payWinners()": "infinite"
        }
    }
}